{
  "contractName": "testContract",
  "abi": [
    {
      "inputs": [],
      "name": "displayName",
      "outputs": [
        {
          "internalType": "string",
          "name": "",
          "type": "string"
        }
      ],
      "stateMutability": "nonpayable",
      "type": "function"
    }
  ],
  "bytecode": "0x608060405234801561001057600080fd5b50610321806100206000396000f3fe608060405234801561001057600080fd5b506004361061002b5760003560e01c80634affb26014610030575b600080fd5b61003861004e565b6040516100459190610268565b60405180910390f35b60606040518060400160405280600c81526020017f4d6178696d696c6c69616e6f00000000000000000000000000000000000000008152506000908051906020019061009b92919061012c565b50600080546100a9906102b9565b80601f01602080910402602001604051908101604052809291908181526020018280546100d5906102b9565b80156101225780601f106100f757610100808354040283529160200191610122565b820191906000526020600020905b81548152906001019060200180831161010557829003601f168201915b5050505050905090565b828054610138906102b9565b90600052602060002090601f01602090048101928261015a57600085556101a1565b82601f1061017357805160ff19168380011785556101a1565b828001600101855582156101a1579182015b828111156101a0578251825591602001919060010190610185565b5b5090506101ae91906101b2565b5090565b5b808211156101cb5760008160009055506001016101b3565b5090565b600081519050919050565b600082825260208201905092915050565b60005b838110156102095780820151818401526020810190506101ee565b83811115610218576000848401525b50505050565b6000601f19601f8301169050919050565b600061023a826101cf565b61024481856101da565b93506102548185602086016101eb565b61025d8161021e565b840191505092915050565b60006020820190508181036000830152610282818461022f565b905092915050565b7f4e487b7100000000000000000000000000000000000000000000000000000000600052602260045260246000fd5b600060028204905060018216806102d157607f821691505b602082108114156102e5576102e461028a565b5b5091905056fea2646970667358221220996dba6d3aa0cc670ce79d4e19df5d6fa1c32c0135343f522ffadebd4ae5e99664736f6c634300080b0033",
  "immutableReferences": {},
  "source": "pragma solidity <=0.8.11 <0.9.0;\r\n\r\ncontract testContract {\r\n    string name;\r\n\r\n    function displayName() public returns (string memory) {\r\n        name = \"Maximilliano\";\r\n        return name;\r\n    }\r\n}\r\n",
  "sourcePath": "C:\\Users\\HP\\Desktop\\Solidity\\contracts\\testContract 1.sol",
  "compiler": {
    "name": "solc",
    "version": "0.8.11+commit.d7f03943.Emscripten.clang"
  },
  "schemaVersion": "3.4.4",
  "updatedAt": "2022-01-21T22:12:40.348Z",
  "devdoc": {
    "kind": "dev",
    "methods": {},
    "version": 1
  },
  "userdoc": {
    "kind": "user",
    "methods": {},
    "version": 1
  }
}